:020000040800F2
:1000000000180020951900081106000813060008C2
:1000100000000000000000000000000000000000E0
:1000200000000000000000000000000015060008AD
:100030000000000000000000170600081906000874
:10004000151A0008151A0008151A0008151A0008D4
:10005000151A0008151A0008151A0008151A0008C4
:10006000151A0008151A0008151A0008151A0008B4
:10007000151A0008151A0008151A0008151A0008A4
:10008000151A00080000000000000000151A000802
:1000900000000000151A0008151A0008151A0008BB
:1000A00000000000151A0008151A0008151A0008AB
:1000B000151A000800000000151A0008151A00089B
:1000C000002243088B4274D303098B425FD3030A97
:1000D0008B4244D3030B8B4228D3030C8B420DD3AA
:1000E000FF22090212BA030C8B4202D31212090238
:1000F00065D0030B8B4219D300E0090AC30B8B4276
:1001000001D3CB03C01A5241830B8B4201D38B0323
:10011000C01A5241430B8B4201D34B03C01A5241C8
:10012000030B8B4201D30B03C01A5241C30A8B420B
:1001300001D3CB02C01A5241830A8B4201D38B02F6
:10014000C01A5241430A8B4201D34B02C01A52419A
:10015000030A8B4201D30B02C01A5241CDD2C3090C
:100160008B4201D3CB01C01A524183098B4201D388
:100170008B01C01A524143098B4201D34B01C01A73
:10018000524103098B4201D30B01C01A5241C308EB
:100190008B4201D3CB00C01A524183088B4201D35A
:1001A0008B00C01A524143088B4201D34B00C01A46
:1001B0005241411A00D20146524110467047FFE7B2
:1001C00001B5002000F006F802BDC0460029F7D0B6
:1001D00076E770477047C04610B5064C2378002B71
:1001E00007D1054B002B02D0044800E000BF0123DB
:1001F000237010BD0C00002000000000701A0008E1
:10020000044B10B5002B03D00349044800E000BFA5
:1002100010BDC0460000000010000020701A000849
:1002200000B585B00C22002101A801F0F4FB1848AC
:10023000184B0360002343608360C36001220261A6
:1002400004214161037643768376C376C221FF3170
:10025000C16103629E39FF394354826200F03EFA65
:1002600000280FD10023019380235B010293802398
:100270005B050393064801A900F0F2FA002804D1B7
:1002800005B000BD00F0FEF8ECE700F0FBF8F7E782
:10029000280000200024014010B588B0040014227A
:1002A000002103A801F0B7FB2268114B9A4201D04C
:1002B00008B010BD0F4B9A69802189000A439A61EA
:1002C0009A690A400192019A5A69802189020A4377
:1002D0005A615B690B400293029B01230393023333
:1002E0000493902003A9C00500F0A8FBE0E7C046F6
:1002F0000024014000100240F0B589B01422002112
:1003000003A801F088FB1F4B5A698021C9020A43E8
:100310005A615A690A400092009A5A698021C903B9
:100320000A435A615A690A400192019A5A69802126
:1003300089020A435A615B690B400293029B902732
:10034000FF050022F221380000F03DFC0226039652
:10035000002404940125059503A90B4800F06EFBC9
:10036000F223039304950594069403A9380000F042
:1003700065FB03960494059503A9044800F05EFB11
:1003800009B0F0BD0010024000140048000400480D
:1003900010B51448144B0360144B43600023836072
:1003A0000122C260036143618361C361036200F0A3
:1003B00057FD00280CD10B48002100F071FE0028E9
:1003C00009D10848002100F097FE002806D110BD91
:1003D00000F058F8EFE700F055F8F2E700F052F8B7
:1003E000F5E7C0466800002000540040F398101064
:1003F000F0B589B004001422002103A801F00BFB22
:1004000022681C4B9A4201D009B0F0BD1A4C6369B6
:100410008022D20213436361636913400093009BFF
:1004200063698022D20313436361636913400193BC
:10043000019B80235B0003931227049703260696F3
:100440000125079503A90D4800F0F8FA03950497D4
:10045000002305930696079503A9094800F0EEFAD4
:10046000E369802292031343E361E369134002933B
:10047000029BC9E7005400400010024000040048FD
:100480000014004872B6FEE710B598B0342200217F
:100490000BA801F0C0FA10241022002107A801F0D7
:1004A000BAFA1822002101A801F0B5FA12230B9321
:1004B000113B0E9310930F941194013314938023E6
:1004C0001B0215930BA800F041FE002818D107234A
:1004D0000793053B08937E33099300230A93002179
:1004E00007A801F011F900280CD120230193103B3B
:1004F000049301A801F0AAF9002805D118B010BD95
:10050000FFF7C0FFFFF7BEFFFFF7BCFF70B58EB06F
:1005100000F0B0F8FFF7B8FFFFF7EEFEFFF780FE40
:10052000FFF736FF9024E40501228021200000F02F
:100530004AFB01222021200000F045FB0AAB1422D7
:100540001A7000225A700C21997006AB093119708B
:100550005A701B31997002AB0F3119705A701832F2
:100560009A700221194800F027FB0028F9D1184D94
:100570000526009603230AAA1221280000F0D6FCC3
:1005800004000096032306AA1221280000F0CEFCE6
:100590000443E4B20096032302AA1221280000F0CB
:1005A000C5FC0443E4B2002CDBD19024E405012215
:1005B0004021200000F007FBFA20400000F07CF80A
:1005C00000224021200000F0FEFACAE700040048A3
:1005D0006800002082B00C4B996901221143996197
:1005E00099690A400092009ADA69802149050A4314
:1005F000DA61DB690B400193019B044A1368102107
:100600000B43136002B0704700100240000001402D
:10061000FEE7FEE77047704710B500F03BF810BDED
:100620007047000010B504000F4B1978FA208000C5
:10063000FFF746FD01000D4B1868FFF741FD00F084
:10064000F9F900280DD1032C01D901200AE001306D
:1006500000222100404200F0E9F9054B1C60002017
:1006600000E0012010BDC046040000200000002072
:100670000800002010B5064A136810210B431360D0
:100680000320FFF7CFFFFFF7A5FF002010BDC046F6
:1006900000200240034A1168034B1B785B1813606B
:1006A0007047C046BC00002004000020014B1868C1
:1006B0007047C046BC00002070B50400FFF7F6FF8D
:1006C0000500631C02D0044B1B78E418FFF7EEFF13
:1006D000401BA042FAD370BD0400002070B5041E78
:1006E00000D1B4E0836B002B00D180E0A36BDB066C
:1006F00000D5A6E023689A68042108001040114242
:1007000000D09EE0A26B53490A400631FF310A43F4
:10071000A263996803220A40012A6ED0DA68182180
:100720008A43A1680A43DA60226813699B009B0828
:1007300061680B4313612268D36847490B40D3605B
:10074000237E9B03627ED2031343A17E4A0313439D
:10075000A26A012A58D0802252011343E26813434F
:100760002269022A52D003432422A25C520013437E
:10077000E27E012A4CD0E269C221FF318A4202D0D6
:10078000216A0A4313432168CA681A43CA60E26AAD
:10079000802149058A420DD0012A0BD0022A09D0B6
:1007A000032A07D0042A05D0052A03D0062A01D03F
:1007B000072A0AD1206841690722914341612068D4
:1007C0004169E56A2A400A4342612268D2682349A6
:1007D0000A409A422BD0A36B12229343023A13434E
:1007E000A363E36B0F3A1343E36301202EE0C3637B
:1007F00034228354FFF750FD78E71A68D2079AD461
:10080000DA68120497D489E70200A6E70420AAE771
:10081000002903D1802252021343ACE7A26B2021AE
:100820000A43A263E26B1F390A43E263A3E7002392
:10083000E363A36B03229343023A1343A3630020B1
:1008400004E0A36B10221343A363012070BD0120B9
:10085000FCE7C046FDFEFFFF1902FEFFE7FF3F83F6
:1008600030B583B00400002301933433C35C012B03
:1008700000D17FE034230122C254026893685B07F1
:100880006AD448683C4B98424BD0936A0D6801206B
:10089000A84003439362E36A80225205934213D037
:1008A000013B062B10D988682268556907232B4025
:1008B000984209D0506907239843506120684269E3
:1008C0008D682B40134343610B681A00103A022ACB
:1008D0004CD82A4A1268102B0ED0112B09D0802335
:1008E0005B041343254A13600B68102B07D00020CC
:1008F00037E08023DB03F4E780231B04F1E7204B80
:1009000018682049FFF7DCFB83001B185B0001938C
:1009100002E0019B013B0193019B002BF9D10020D8
:100920001FE0936A0D680120A840834393620B681F
:100930001A00103A022A1BD8104A1268102B09D04C
:10094000112B05D0104B13400C4A1360002008E017
:100950000E4BF8E70E4BF6E7836B202213438363BD
:10096000012034230022E25403B030BD0020F8E718
:100970000020F6E70220F7E70110000008270140F9
:100980000000002040420F00FFFFFFFEFFFFBFFFFF
:10099000FFFF7FFF70B5002811DB8308134DC033C4
:1009A0009B005C5903221040C000FC3216008640B8
:1009B000B44389010A40824022435A5170BD0F233B
:1009C0000340083B9B0806339B00094A9446634456
:1009D0005C6803221040C000FC3215008540AC4327
:1009E00089010A40824022435A60E7E700E100E0C3
:1009F00000ED00E0013880235B0498420FD2094AE1
:100A000050600948036A1B021B0AC02109060B43F8
:100A100003620023936007331360002070470120B6
:100A2000FCE7C04610E000E000ED00E010B5FFF785
:100A3000B1FF10BD10B5FFF7DDFF10BDF0B583B0FD
:100A4000002356E086685F000324BC40A643CC68C0
:100A5000BC4034438460446894434E6836090122A4
:100A600032409A402243426053E0DE080836B60026
:100A7000375805321A4092000F249440A7430C695E
:100A8000944022003A43325056E0022600E000260D
:100A9000A64034003C4302329200424E9451424AF6
:100AA0009768EA433E00AE434C68E40201D53E003D
:100AB0002E433D4CA660E7683E0016404C68A402F9
:100AC00001D53E002E43384CE66067683E00164074
:100AD0004C68A40301D53E002E43334C6660266863
:100AE00032404C68E40301D52A0032432E4C226088
:100AF00001330C682200DA4051D001229A402500CF
:100B000015401442F4D04E6803243440013C012CBB
:100B100098D94C6803222240032A08D0C4685E009A
:100B20000322B24094438A68B2402243C2604C68B8
:100B300003222240022A98D004685E000322170094
:100B4000B740BC434F683A40B240224302604C6811
:100B5000C02292021442CBD0144CA6690122164343
:100B6000A661A46922400192019A9A08941CA400EB
:100B70000C4EA75903241C40A4000F26A640B743DF
:100B80009026F605B04282D0094EB04205D0094EFB
:100B9000B04200D179E705267AE7012678E703B06D
:100BA000F0BDC046000001400004014000100240BA
:100BB000000400480008004803690B4201D00120EE
:100BC00070470020FCE7002A01D0816170478162F4
:100BD000FCE7026893699B0701D5002393620368D1
:100BE0009A69D20703D49A6901210A439A6170472E
:100BF00010B58905890D120411431943029B19434D
:100C000049004908046862685B0D8020C000034009
:100C1000034803439A4313000B43636010BDC0466F
:100C2000FF63FF03F0B5C64600B504000D001700D2
:100C300001688B69102216001E401A4200D175E02F
:100C40001023CB61002398460026206883699B0609
:100C500031D4002E2FD16B1CF7D0FFF727FDC01B1E
:100C6000A84201D8002DF0D121684B688022D20122
:100C700013404222A25CD2B28869000403D5002B43
:100C800001D1202A0ED123689B699B06DDD4FFF792
:100C90000DFDC01B1928F6D9202342461A43904661
:100CA0000126D2E74A688023DB0113434B60FFF73C
:100CB000FDFC0700E7E7002E01D12023C3610426D5
:100CC000434633431E00012522689369D90504D5A4
:100CD00001210E43FF31D16101255A0506D50822B5
:100CE000164322688021C900D16101259B051FD5CB
:100CF00002231E43236880229200DA61012520002E
:100D0000FFF767FF226853680B490B405360636C21
:100D10003343636441232022E25400232232A3544C
:100D2000023AA354280080BCB846F0BD0025CBE7AA
:100D3000002DF7D0E3E7C04600E800FE70B50400E0
:100D40000D00160023689B699B0720D43200290000
:100D50002000FFF767FF00281BD16B1CF2D0FFF7C4
:100D6000A5FC801BA84201D8002DEBD123689B690C
:100D70009B07E7D4636C2022134363644123E2544E
:100D800000232232A354023AA354012000E00020A1
:100D900070BD0120FCE7F0B5CE4600B582B007007B
:100DA0000D00160099463B689C692C40641B634209
:100DB0005C410196B44221D14B460133F3D0FFF799
:100DC00075FC089BC01A484502D84B46002BEAD157
:100DD0003B689B692B405B1B5A425341019A9342EB
:100DE000E1D17B6C202213437B644123FA5400231E
:100DF0002232BB54023ABB54012000E0002002B072
:100E000080BCB946F0BD70B504000D00160003E0CB
:100E100023689B699B0612D523689B699B061BD49C
:100E2000320029002000FFF7FDFE002816D1FFF751
:100E30003DFC801BA842EBD8002DEDD1E8E7636CA8
:100E40002022134363644123E25400232232A3543B
:100E5000023AA354012000E0002070BD0120FCE70D
:100E600010B5041E59D04123C35C002B43D041234D
:100E70002422E2542268136801218B4313606368C3
:100E8000226827490B4013612268936825490B406B
:100E90009360E368012B34D0A168226884231B028D
:100EA0000B439360E368022B32D0226851681E4BDB
:100EB0000B4353602268D3681A490B40D3602369FF
:100EC00062691343A269120221681343CB60E3698C
:100ED000216A22680B4313602268136801210B43C7
:100EE00013600023636441221F31A1542363013244
:100EF000A354002010BD40330022C254FFF778FAFB
:100F0000B5E7A168226880231B020B439360C9E701
:100F10002368802212015A60C7E70120EAE7C04631
:100F2000FFFFFFF0FF7FFFFF00800002F0B585B0FC
:100F300004000F00029203930A9D4123C35C202BFF
:100F400000D09BE02033C35C012B00D199E040230B
:100F50000122C254FFF7AAFB06008021009019234A
:100F6000012209022000FFF716FF002800D08AE0C6
:100F700041232122E2540133113AE25400236364F5
:100F8000029A6262039A62856363638D9BB2FF2B50
:100F90000BD9FF2323857F3B3F4A00925B04FF224E
:100FA00039002000FFF724FE18E0628D92B22285FE
:100FB0008023D2B2384900919B0439002000FFF70A
:100FC00017FE0BE0628D92B222858023D2B20021FF
:100FD00000919B0439002000FFF70AFE638D9BB24D
:100FE000002B34D0320029002000FFF7A7FE002894
:100FF0004BD1626A236812789A62636A0133636232
:10100000638D013B9BB26385238D013B9BB223859E
:10101000628D92B2002AE1D0002BDFD100962B0026
:10102000002280212000FFF7B6FE00282FD1638D1B
:101030009BB2FF2BC6D9FF2323857F3B0022009262
:101040005B04FF3239002000FFF7D2FDC6E7320013
:1010500029002000FFF7D7FE00281AD1236820229C
:10106000DA6121684B680D4D2B404B604123E254FF
:1010700000232232A354023AA35400E0022005B018
:10108000F0BD0220FBE70120F9E70120F7E701208E
:10109000F5E70120F3E7C0460020008000E800FEED
:1010A000F0B54123C35C202B20D12033C35C012B3E
:1010B0001ED04024012202554125242343550668B1
:1010C000336893433360066833680A4F3B403360AC
:1010D000066833680B43336001680B6813430B6089
:1010E00020234355002303550020F0BD0220FCE7D8
:1010F0000220FAE7FFEFFFFFF0B54123C35C202B8E
:101100001ED12033C35C012B1CD040240122025588
:1011100041252423435506683368934333600668AA
:101120003368094F3B4009021943316001680B687D
:1011300013430B6020234355002303550020F0BDCB
:101140000220FCE70220FAE7FFF0FFFF70B582B053
:10115000041E00D17FE20368DB072BD5B34B5A682E
:101160000C231340042B1DD0B04B5A680C231340A2
:10117000082B0ED06368012B41D0002B56D1AB4B0E
:101180001A68AB490A401A601A68AA490A401A60EC
:101190003BE0A64B5B68C022520213408022520201
:1011A0009342E7D1A14B1B689B0303D56368002BD7
:1011B00000D153E223689B0777D59C4B5B680C22D8
:1011C0001A4262D0994B5A680C231340082B53D013
:1011D000E368002B00D18AE0944A136801210B4395
:1011E0001360FFF763FA0500904B1B689B0775D4EB
:1011F000FFF75CFA401B0228F6D903202CE28B4A49
:10120000116880235B020B4313606368002B25D0B9
:10121000FFF74CFA0500854B1B689B03CAD4FFF708
:1012200045FA401B6428F6D9032015E2052B09D0A6
:101230007E4B1A687E490A401A601A687D490A4046
:101240001A60E2E7794B19688022D2020A431A60D9
:101250001968802252020A431A60D6E7FFF726FA7D
:101260000500724B1B689B03A4D5FFF71FFA401BB8
:101270006428F6D90320EFE16C4B5B68C022520270
:101280001340802212029342A2D1684B1B689B0735
:1012900003D5E368012B00D0E2E164490B68F82232
:1012A00093432269D20013430B6023681B0744D584
:1012B000E369002B2ED05D4A536A01210B43536230
:1012C000FFF7F4F90500594B5B6A9B0735D4FFF72C
:1012D000EDF9401B0228F6D90320BDE153490B6804
:1012E000F82293432269D20013430B60DDE74F4A93
:1012F000136801218B431360FFF7D8F905004B4BAE
:101300001B689B07D1D5FFF7D1F9401B0228F6D9FE
:101310000320A1E1454A536A01218B435362FFF741
:10132000C5F90500414B5B6A9B0706D5FFF7BEF97F
:10133000401B0228F6D903208EE123685B0700D406
:1013400080E03A4BDB69DB001DD4384BDA69802141
:1013500049050A43DA61DB690B400193019B0125D2
:10136000354B1B68DB0510D5A368012B21D0002B62
:1013700036D12E4B1A6A01218A431A621A6A033146
:101380008A431A621AE00025EAE72B4A1168802393
:101390005B000B431360FFF789F90600264B1B68BF
:1013A000DB05E1D4FFF782F9801B6428F6D903201E
:1013B00052E11E4A136A01210B431362A368002BFA
:1013C00024D0FFF773F90600184B1B6A9B0737D42C
:1013D000FFF76CF9801B194B9842F5D903203BE1CC
:1013E000052B09D0114B1A6A01218A431A621A6A25
:1013F00003318A431A62E1E70C4B1A6A04210A435B
:101400001A621A6A03390A431A62D7E7FFF74EF9DC
:101410000600064B1B6A9B0712D5FFF747F9801B96
:10142000064B9842F5D9032016E1C0460010024051
:10143000FFFFFEFFFFFFFBFF00700040881300006E
:10144000012D39D02368DB0610D56369012B39D013
:10145000053357D1894A536B04218B435363536B34
:10146000F4318B43A169C9000B43536323689B0686
:101470006ED5824B5A680C2313400C2B60D07F4BE7
:101480005A680C231340082B53D0236A002B7ED0BC
:101490007A4A516B80235B020B435363FFF706F9D3
:1014A0000500764B5B6B9B0352D4FFF7FFF8401BA4
:1014B0000228F6D90320CFE0704AD36970490B4067
:1014C000D361BFE76D4B5A6B04210A435A635A6BD1
:1014D00003390A435A63FFF7E9F80500674B5B6B72
:1014E0009B0706D4FFF7E2F8401B0228F6D9032039
:1014F000B2E062494B6BF8229343A269D2001343D6
:101500004B63B3E75D4B5A6B04210A435A635A6B32
:1015100003398A435A63FFF7C9F80500574B5B6BE1
:101520009B07A3D5FFF7C2F8401B0228F6D903207A
:1015300092E0524B5B68C022520213409342A4D106
:101540004E4B5B6B9B0303D5236A012B00D089E0D4
:10155000636A002B00D187E0484A51680C220A4098
:10156000082A60D0022B25D0444A136845490B4015
:101570001360FFF79BF80400404B1B689B0150D59C
:10158000FFF794F8001B0228F6D9032064E03B4AD9
:10159000536B3D490B405363FFF788F80500374B09
:1015A0005B6B9B03D4D5FFF781F8401B0228F6D96B
:1015B000032051E0314A136832490B401360FFF7B2
:1015C00075F805002D4B1B689B0106D5FFF76EF8DB
:1015D000401B0228F6D903203EE0284BDA6A0F218F
:1015E0008A43216B0A43DA625A6828490A40E16A51
:1015F000A06A01430A435A601968802252040A43D0
:101600001A60FFF753F804001C4B1B689B0106D4BB
:10161000FFF74CF8001B0228F6D903201CE000203D
:101620001AE0002018E0012B20D0144B5A68D86A29
:10163000C0235B021340A16A8B4219D10F230340E0
:10164000216B8B4216D1F0239B031A40E36A9A4226
:1016500012D1002000E0012002B070BD0120FBE7A4
:101660000120F9E70120F7E70020F5E70120F3E783
:101670000120F1E70120EFE70120EDE70010024033
:10168000FFFFFFEFFFFFFFFEFFFFFEFFFF7FC2FF39
:1016900010B5184B5A680C231340082B03D00C2BA1
:1016A00025D1154810BD910C0F2319401348445CF7
:1016B0001049C96A0B401249C95CC0235B021A4039
:1016C00080235B029A4208D0C0235B029A4209D071
:1016D0000C48FEF7F5FC6043E4E70A48FEF7F0FC2F
:1016E0006043DFE70448FEF7EBFC6043DAE70548B8
:1016F000D8E7C04600100240006CDC02A81A0008BF
:10170000981A000800127A0070B504000D00002835
:1017100000D186E0474B1A68012313408B420AD25E
:1017200044490B68012293432B430B600B681A401A
:10173000AA4200D077E023689A070ED55B0705D54B
:101740003D4A5168E023DB000B4353603A4A53683B
:10175000F0218B43A1680B4353602368DB0735D529
:101760006368012B09D0022B24D0032B28D0324AE6
:101770001268920705D4012052E02F4A12689203A2
:1017800053D52D494A680320824313434B60FEF72B
:101790008DFF0600284B5B680C221A4063689B0093
:1017A0009A4213D0FEF782FF801B244B9842F1D956
:1017B000032035E0204A12689201E2D401202FE094
:1017C0001D4A526B9203DCD4012029E0194B1A68A0
:1017D00001231340AB4209D916490B6801229343F8
:1017E0002B430B600B681A40AA4220D123685B0789
:1017F00006D5114A536812490B40E1680B43536008
:10180000FFF746FF0C4B5A6812090F2313400D4A8D
:10181000D35CD8400C4B18600320FEF703FF002078
:1018200070BD0120FCE70120FAE70120F8E7012064
:10183000F6E7C04600200240001002408813000076
:10184000FFF8FFFF881A00080000002070B582B082
:1018500004000368DB0339D5484BDB69DB005FD448
:10186000464BDA69802149050A43DA61DB690B409E
:101870000193019B0125424B1B68DB0552D53F4B71
:101880001A6AC0239B00110019401A4215D06368E0
:10189000C022920013408B420FD0384B1A6A39494C
:1018A00011401E6A8020400230431862186A364E8A
:1018B000304018621962D20748D4304A136A31495D
:1018C0000B4061680B431362012D4ED02368DB0788
:1018D00006D52A4A136B03218B43A1680B4313637C
:1018E00023689B0606D5254A136B10218B43E168BC
:1018F0000B43136323689B0306D5204A136B802197
:101900008B4361690B43136323685B0532D51B4A24
:10191000136B40218B4321690B43136300202AE0A2
:101920000025A8E7164A116880235B000B4313606B
:10193000FEF7BCFE0600124B1B68DB059FD4FEF7CA
:10194000B5FE801B6428F6D9032014E0FEF7AEFE36
:1019500006000A4B1B6A9B07AFD4FEF7A7FE801B4D
:101960000A4B9842F5D9032005E0D36908490B409A
:10197000D361ABE7002002B070BDC046001002404A
:1019800000700040FFFCFFFFFFFFFEFF8813000018
:10199000FFFFFFEF13488546FEF742FE124801683D
:1019A000090E124A914205D11148124901601248AC
:1019B0001249016012481349134A002302E0D45827
:1019C000C4500433C4188C42F9D3104A104C00237D
:1019D00001E013600432A242FBD300F025F8FEF7C9
:1019E00095FDFEE700180020040000001F00000025
:1019F000181002400100000000000140000000003B
:101A0000000000200C000020C01A00080C0000207C
:101A1000C0000020FEE703008218934200D1704707
:101A200019700133F9E7000070B500260C4C0D4D1C
:101A3000641BA410A64209D1002600F019F80A4C34
:101A40000A4D641BA410A64205D170BDB300EB582B
:101A500098470136EEE7B300EB5898470136F2E7B6
:101A6000B81A0008B81A0008BC1A0008B81A00080A
:101A7000F8B5C046F8BC08BC9E467047F8B5C046ED
:081A8000F8BC08BC9E4670474B
:101A88000000000000000000010203040607080926
:101A98000102030405060708090A0B0C0D0E0F10B6
:101AA80002030405060708090A0B0C0D0E0F101097
:041AB800010200081F
:041ABC00D901000844
:0C1AC00000127A00010000000400000089
:040000050800199541
:00000001FF
